:100000000C9434010C943E010C943E010C943E017E
:100010000C943E010C943E010C943E010C943E0164
:100020000C943E010C943E010C943E010C943E0154
:100030000C943E010C943E010C943E010C943E0144
:100040000C943E010C943E010C943E010C943E0134
:100050000C943E010C943E010C943E010C943E0124
:100060000C943E010C943E010902060206020602AF
:100070000602060206020602060206020602060240
:100080000602060206020602060206020602060230
:100090000602060206020602060206020602060220
:1000A0000602060206020602060206020602060210
:1000B0000602060206020602060206020602060200
:1000C00006020602060206020302E801EB01EE0147
:1000D000F101F401F701FA01FD0100020602060236
:1000E000060206020602060206020902460149014C
:1000F0004C014F015201550158015B015E01610144
:10010000640167016A016D01700173017601790173
:100110007C017F018201850188018B018E0106022D
:10012000060206020602060206020902460149010B
:100130004C014F015201550158015B015E01610103
:10014000640167016A016D01700173017601790133
:100150007C017F018201850188018B018E010602ED
:10016000060206020602060206020602060206024F
:10017000060206020602060206020602060206023F
:10018000060206020602060206020602060206022F
:10019000060206020602060206020602060206021F
:1001A000060206020602060206020602060206020F
:1001B00006020602060206020602060206020602FF
:1001C00006020602060206020602060206020602EF
:1001D00006020602060206020602060206020602DF
:1001E0000602060206020602090291019401970125
:1001F0009A019D01A001A301A6010602A901AC017B
:10020000AF01B201B501B801BB01BE01C101C4011A
:10021000C701CA01CD01D001D3010602D601D9011F
:10022000DC01DF01E201E50109029101940197017E
:100230009A019D01A001A301A6010602A901AC013A
:10024000AF01B201B501B801BB01BE01C101C401DA
:10025000C701CA01CD01D001D3010602D601D901DF
:10026000DC01DF01E201E50111241FBECFEFD8E080
:10027000DEBFCDBF0E947C020C94F6020C940000FD
:1002800090E0FC01EC5CFF4F0C94F0028DEE94ECDE
:10029000089581EC91E9089585EE94EC089589EC38
:1002A00099E9089589E099E9089589EE91E9089519
:1002B0008CE299E1089581EC94EC089584EE91E04C
:1002C000089582E199E1089580EC91E1089586E234
:1002D00091E3089584E391E3089585EE91E908950B
:1002E0008DE099E9089585EF91E908958DE199E907
:1002F000089589EE98E9089581E094EC089584EEDC
:1003000091E1089582E093E1089584E393E10895F3
:1003100082E192E2089582E094E2089583EC92E80B
:10032000089589EE99E908958BE694E4089581E0B3
:1003300091E908958DEE99E8089589EC99E9089579
:1003400082E196E608958BE690E0089586E293E1D7
:10035000089582E199E1089586E292E008958BE69E
:1003600094E408958CE299E1089585EE91E9089569
:1003700085E291E908958DE099E9089581EC91E98C
:10038000089581E094EC08958CE698E108958DE05D
:1003900098ED089582E192E2089580EC95E5089544
:1003A0008CE298E1089584EE95E1089588E694EC56
:1003B000089584EA9DE1089580E89DE108958DEE19
:1003C00098E8089585E69DE5089580E09EED0895FE
:1003D00086E290E008958DEC99E808958DEE90E81E
:1003E00008958CE298E1089589EE98E9089589EEE0
:1003F00099E9089585E290E808958DEE99E90895C8
:100400008DEE98E9089585EE91E908958FEF9FEFBD
:1004100008958DE299E9089584B18C6284B985B11B
:1004200085B98CB580658CBD85B185B908952A9A4A
:1004300085B185B908951092C5008CE08093C40001
:1004400082E08093C00080E18093C10086E38093C6
:10045000C2000895E0ECF0E080818823ECF7809101
:10046000C60008950F931F93CF93DF93EC018C0187
:10047000085F1F4F0E942A028993C017D107D1F746
:10048000DF91CF911F910F9108959EBD0DB407FE8E
:10049000FDCF8EBD0DB407FEFDCF08950F931F93C2
:1004A000CF93DF93CDB7DEB728970FB6F894DEBFB2
:1004B0000FBECDBFBE01675F7F4FFE0131968B013E
:1004C0009C01D9014D919D01D8014E938D01AE172C
:1004D000BF07B9F72191DC012D93CD01E617F7078E
:1004E000C9F728960FB6F894DEBF0FBECDBFDF91D7
:1004F000CF911F910F910895CF93DF93CDB7DEB7C2
:1005000060970FB6F894DEBF0FBECDBF0E941B02EE
:100510000E940C020F2EF1E62F2EF02D0F2EF2E688
:100520003F2EF02D0F2EF3E64F2EF02D0F2EF4E67A
:100530005F2EF02D0F2EF5E66F2EF02D0F2EF6E626
:100540007F2EF02D0F2EF7E68F2EF02D0F2EF8E6D2
:100550009F2EF02D5E0129E0A20EB11C6E0181E1FB
:10056000C80ED11C29863A864B865C866D867E86AF
:100570008F86988AC5010E944E0285017501F70198
:1005800081917F010E9440010E944502CE14DF0448
:10059000B1F70E941702CE0101960E943202FE01BD
:1005A0003196D80181918D93AE16BF06D9F7C5015A
:1005B0000E944E02F80181918F010E9440010E9429
:1005C0004502C016D106B1F70E941702FFE72DE8D9
:1005D0008BE5F15020408040E1F700C00000C2CF21
:1005E000EE0FFF1F0590F491E02D0994F894FFCFD2
:00000001FF
