S015000052756E6E696E67537472696E672E73726563B7
S11300000C9404010C940E010C940E010C940E013A
S11300100C940E010C940E010C940E010C940E0120
S11300200C940E010C940E010C940E010C940E0110
S11300300C940E010C940E010C940E010C940E0100
S11300400C940E010C940E010C940E010C940E01F0
S11300500C940E010C940E010C940E010C940E01E0
S11300600C940E010C940E01D801BD01C001C30112
S1130070C601C901CC01CF01D201D501DB01DB01ED
S1130080DB01DB01DB01DB01DB01DE011B011E0106
S11300902101240127012A012D01300133013601F8
S11300A039013C013F014201450148014B014E0128
S11300B05101540157015A015D0160016301DB01E3
S11300C0DB01DB01DB01DB01DB01DE011B011E01C6
S11300D02101240127012A012D01300133013601B8
S11300E039013C013F014201450148014B014E01E8
S11300F05101540157015A015D0160016301DB01A3
S1130100DB01DB01DB01DB01DB01DB01DB01DB010B
S1130110DB01DB01DB01DB01DB01DB01DB01DB01FB
S1130120DB01DB01DB01DB01DB01DB01DB01DB01EB
S1130130DB01DB01DB01DB01DB01DB01DB01DB01DB
S1130140DB01DB01DB01DB01DB01DB01DB01DB01CB
S1130150DB01DB01DB01DB01DB01DB01DB01DB01BB
S1130160DB01DB01DB01DB01DB01DB01DB01DB01AB
S1130170DB01DB01DB01DB01DB01DB01DB01DB019B
S1130180DB01DB01DB01DB01DE01660169016C01DE
S11301906F017201750178017B01DB017E01810130
S11301A0840187018A018D019001930196019901CF
S11301B09C019F01A201A501A801DB01AB01AE01D5
S11301C0B101B401B701BA01DE01660169016C0134
S11301D06F017201750178017B01DB017E018101F0
S11301E0840187018A018D0190019301960199018F
S11301F09C019F01A201A501A801DB01AB01AE0195
S1130200B101B401B701BA0111241FBECFEFD8E088
S1130210DEBFCDBF0E9451020C94CB020C940000AF
S113022090E0FC01F097E03DF10508F0C4C0EC5CFF
S1130230FF4F0C94C5028DEE94EC089581EC91E986
S1130240089585EE94EC089589EC99E9089589E080
S113025099E9089589EE91E908958CE299E1089568
S113026081EC94EC089584EE91E0089582E199E1A3
S1130270089580EC91E1089586E291E3089584E382
S113028091E3089585EE91E908958DE099E9089543
S113029085EF91E908958DE199E9089589EE98E94A
S11302A0089581E094EC089584EE91E1089582E04C
S11302B093E1089584E393E1089582E192E208953D
S11302C082E094E2089583EC92E8089589EE99E936
S11302D008958BE694E4089581E091E908958DEE04
S11302E099E8089589EC99E9089582E196E60895DC
S11302F08BE690E0089586E293E1089582E199E126
S1130300089586E292E008958BE694E408958CE2E1
S113031099E1089585EE91E9089585E291E90895BA
S11303208DE099E9089581EC91E9089581E094ECD8
S113033008958CE698E108958DE098ED089582E1A2
S113034092E2089580EC95E508958CE298E1089591
S113035084EE95E1089588E694EC089584EA9DE19D
S1130360089580E89DE108958DEE98E8089585E666
S11303709DE5089580E09EED089586E290E008955D
S11303808DEC99E808958DEE90E808958CE298E15B
S1130390089589EE98E9089589EE99E9089585E22A
S11303A090E808958DEE99E908958DEE98E9089501
S11303B085EE91E908958FEF9FEF08958DE299E915
S11303C0089584B18C6284B985B185B98CB5806592
S11303D08CBD85B185B908952A9A85B185B90895EA
S11303E01092C5008CE08093C40082E08093C0002A
S11303F080E18093C10086E38093C2000895E0EC1D
S1130400F0E080818823ECF78091C60008950F9373
S11304101F93CF93DF93EC018C01085F1F4F0E9461
S1130420FF018993C017D107D1F7DF91CF911F91B5
S11304300F9108959EBD0DB407FEFDCF8EBD0DB482
S113044007FEFDCF08950F931F93CF93DF93CDB78E
S1130450DEB728970FB6F894DEBF0FBECDBFBE013E
S1130460675F7F4FFE0131968B019C01D9014D914D
S11304709D01D8014E938D01AE17BF07B9F72191A5
S1130480DC012D93CD01E617F707C9F728960FB6BF
S1130490F894DEBF0FBECDBFDF91CF911F910F91B6
S11304A00895CF93DF93CDB7DEB760970FB6F89476
S11304B0DEBF0FBECDBF0E94F0010E94E1010F2EEE
S11304C0F1E62F2EF02D0F2EF2E63F2EF02D0F2EFB
S11304D0F3E64F2EF02D0F2EF4E65F2EF02D0F2EA7
S11304E0F5E66F2EF02D0F2EF6E67F2EF02D0F2E53
S11304F0F7E68F2EF02D0F2EF8E69F2EF02D5E01DD
S113050029E0A20EB11C6E0181E1C80ED11C29861E
S11305103A864B865C866D867E868F86988AC50170
S11305200E94230285017501F70181917F010E94D8
S113053010010E941A02CE14DF04B1F70E94EC01EC
S1130540CE0101960E940702FE013196D8018191E5
S11305508D93AE16BF06D9F7C5010E942302F80198
S113056081918F010E9410010E941A02C016D106C7
S1130570B1F70E94EC01FFE72DE88BE5F150204034
S11305808040E1F700C00000C2CFEE0FFF1F0590CE
S10D0590F491E02D0994F894FFCFD4
S9030000FC
